{
  "contractName": "ATM",
  "abi": [
    {
      "anonymous": false,
      "inputs": [
        {
          "indexed": false,
          "internalType": "address",
          "name": "sender",
          "type": "address"
        },
        {
          "indexed": false,
          "internalType": "uint256",
          "name": "amount",
          "type": "uint256"
        }
      ],
      "name": "Deposit",
      "type": "event"
    },
    {
      "anonymous": false,
      "inputs": [
        {
          "indexed": false,
          "internalType": "address",
          "name": "sender",
          "type": "address"
        },
        {
          "indexed": false,
          "internalType": "address",
          "name": "receiver",
          "type": "address"
        },
        {
          "indexed": false,
          "internalType": "uint256",
          "name": "amount",
          "type": "uint256"
        }
      ],
      "name": "Transfer",
      "type": "event"
    },
    {
      "anonymous": false,
      "inputs": [
        {
          "indexed": false,
          "internalType": "address",
          "name": "receiver",
          "type": "address"
        },
        {
          "indexed": false,
          "internalType": "uint256",
          "name": "amount",
          "type": "uint256"
        }
      ],
      "name": "Withdrawal",
      "type": "event"
    },
    {
      "inputs": [
        {
          "internalType": "address",
          "name": "",
          "type": "address"
        }
      ],
      "name": "balances",
      "outputs": [
        {
          "internalType": "uint256",
          "name": "",
          "type": "uint256"
        }
      ],
      "stateMutability": "view",
      "type": "function"
    },
    {
      "inputs": [],
      "name": "deposit",
      "outputs": [],
      "stateMutability": "payable",
      "type": "function"
    },
    {
      "inputs": [
        {
          "internalType": "uint256",
          "name": "amount",
          "type": "uint256"
        }
      ],
      "name": "withdraw",
      "outputs": [],
      "stateMutability": "nonpayable",
      "type": "function"
    },
    {
      "inputs": [
        {
          "internalType": "address[]",
          "name": "receivers",
          "type": "address[]"
        },
        {
          "internalType": "uint256",
          "name": "amount",
          "type": "uint256"
        }
      ],
      "name": "transfer",
      "outputs": [],
      "stateMutability": "nonpayable",
      "type": "function"
    },
    {
      "inputs": [
        {
          "internalType": "address",
          "name": "receiver",
          "type": "address"
        },
        {
          "internalType": "uint256",
          "name": "amount",
          "type": "uint256"
        }
      ],
      "name": "transfer",
      "outputs": [],
      "stateMutability": "nonpayable",
      "type": "function"
    }
  ],
  "bytecode": "0x608060405234801561001057600080fd5b50610bcd806100206000396000f3fe60806040526004361061004a5760003560e01c80631939c1ff1461004f57806327e235e3146100785780632e1a7d4d146100b5578063a9059cbb146100de578063d0e30db014610107575b600080fd5b34801561005b57600080fd5b5061007660048036038101906100719190610800565b610111565b005b34801561008457600080fd5b5061009f600480360381019061009a919061085c565b6102db565b6040516100ac9190610898565b60405180910390f35b3480156100c157600080fd5b506100dc60048036038101906100d791906108b3565b6102f3565b005b3480156100ea57600080fd5b50610105600480360381019061010091906108e0565b610405565b005b61010f61056f565b005b80825161011e919061094f565b6000803373ffffffffffffffffffffffffffffffffffffffff1673ffffffffffffffffffffffffffffffffffffffff16815260200190815260200160002054101561019e576040517f08c379a000000000000000000000000000000000000000000000000000000000815260040161019590610a06565b60405180910390fd5b60005b82518110156102d6577fddf252ad1be2c89b69c2b068fc378daa952ba7f163c4a11628f55a4df523b3ef338483815181106101df576101de610a26565b5b6020026020010151846040516101f793929190610a64565b60405180910390a1816000803373ffffffffffffffffffffffffffffffffffffffff1673ffffffffffffffffffffffffffffffffffffffff168152602001908152602001600020600082825461024d9190610a9b565b925050819055508160008085848151811061026b5761026a610a26565b5b602002602001015173ffffffffffffffffffffffffffffffffffffffff1673ffffffffffffffffffffffffffffffffffffffff16815260200190815260200160002060008282546102bc9190610acf565b9250508190555080806102ce90610b25565b9150506101a1565b505050565b60006020528060005260406000206000915090505481565b806000803373ffffffffffffffffffffffffffffffffffffffff1673ffffffffffffffffffffffffffffffffffffffff168152602001908152602001600020541015610374576040517f08c379a000000000000000000000000000000000000000000000000000000000815260040161036b90610a06565b60405180910390fd5b7f7fcf532c15f0a6db0bd6d0e038bea71d30d808c7d98cb3bf7268a95bf5081b6533826040516103a5929190610b6e565b60405180910390a1806000803373ffffffffffffffffffffffffffffffffffffffff1673ffffffffffffffffffffffffffffffffffffffff16815260200190815260200160002060008282546103fb9190610a9b565b9250508190555050565b806000803373ffffffffffffffffffffffffffffffffffffffff1673ffffffffffffffffffffffffffffffffffffffff168152602001908152602001600020541015610486576040517f08c379a000000000000000000000000000000000000000000000000000000000815260040161047d90610a06565b60405180910390fd5b7fddf252ad1be2c89b69c2b068fc378daa952ba7f163c4a11628f55a4df523b3ef3383836040516104b993929190610a64565b60405180910390a1806000803373ffffffffffffffffffffffffffffffffffffffff1673ffffffffffffffffffffffffffffffffffffffff168152602001908152602001600020600082825461050f9190610a9b565b92505081905550806000808473ffffffffffffffffffffffffffffffffffffffff1673ffffffffffffffffffffffffffffffffffffffff16815260200190815260200160002060008282546105649190610acf565b925050819055505050565b7fe1fffcc4923d04b559f4d29a8bfc6cda04eb5b0d3c460751c2402c5c5cc9109c33346040516105a0929190610b6e565b60405180910390a1346000803373ffffffffffffffffffffffffffffffffffffffff1673ffffffffffffffffffffffffffffffffffffffff16815260200190815260200160002060008282546105f69190610acf565b92505081905550565b6000604051905090565b600080fd5b600080fd5b600080fd5b6000601f19601f8301169050919050565b7f4e487b7100000000000000000000000000000000000000000000000000000000600052604160045260246000fd5b61066182610618565b810181811067ffffffffffffffff821117156106805761067f610629565b5b80604052505050565b60006106936105ff565b905061069f8282610658565b919050565b600067ffffffffffffffff8211156106bf576106be610629565b5b602082029050602081019050919050565b600080fd5b600073ffffffffffffffffffffffffffffffffffffffff82169050919050565b6000610700826106d5565b9050919050565b610710816106f5565b811461071b57600080fd5b50565b60008135905061072d81610707565b92915050565b6000610746610741846106a4565b610689565b90508083825260208201905060208402830185811115610769576107686106d0565b5b835b81811015610792578061077e888261071e565b84526020840193505060208101905061076b565b5050509392505050565b600082601f8301126107b1576107b0610613565b5b81356107c1848260208601610733565b91505092915050565b6000819050919050565b6107dd816107ca565b81146107e857600080fd5b50565b6000813590506107fa816107d4565b92915050565b6000806040838503121561081757610816610609565b5b600083013567ffffffffffffffff8111156108355761083461060e565b5b6108418582860161079c565b9250506020610852858286016107eb565b9150509250929050565b60006020828403121561087257610871610609565b5b60006108808482850161071e565b91505092915050565b610892816107ca565b82525050565b60006020820190506108ad6000830184610889565b92915050565b6000602082840312156108c9576108c8610609565b5b60006108d7848285016107eb565b91505092915050565b600080604083850312156108f7576108f6610609565b5b60006109058582860161071e565b9250506020610916858286016107eb565b9150509250929050565b7f4e487b7100000000000000000000000000000000000000000000000000000000600052601160045260246000fd5b600061095a826107ca565b9150610965836107ca565b9250817fffffffffffffffffffffffffffffffffffffffffffffffffffffffffffffffff048311821515161561099e5761099d610920565b5b828202905092915050565b600082825260208201905092915050565b7f496e73756666696369656e742066756e64730000000000000000000000000000600082015250565b60006109f06012836109a9565b91506109fb826109ba565b602082019050919050565b60006020820190508181036000830152610a1f816109e3565b9050919050565b7f4e487b7100000000000000000000000000000000000000000000000000000000600052603260045260246000fd5b610a5e816106f5565b82525050565b6000606082019050610a796000830186610a55565b610a866020830185610a55565b610a936040830184610889565b949350505050565b6000610aa6826107ca565b9150610ab1836107ca565b925082821015610ac457610ac3610920565b5b828203905092915050565b6000610ada826107ca565b9150610ae5836107ca565b9250827fffffffffffffffffffffffffffffffffffffffffffffffffffffffffffffffff03821115610b1a57610b19610920565b5b828201905092915050565b6000610b30826107ca565b91507fffffffffffffffffffffffffffffffffffffffffffffffffffffffffffffffff821415610b6357610b62610920565b5b600182019050919050565b6000604082019050610b836000830185610a55565b610b906020830184610889565b939250505056fea2646970667358221220320078dc28e325a0b46912ab78451a91fe6731ddd2b2ac8a369f4115b598d46164736f6c63430008090033",
  "immutableReferences": {},
  "source": "pragma solidity >=0.5.13 <0.9.0;\n\ncontract ATM {\n    mapping(address => uint256) public balances;\n\n    event Deposit(address sender, uint256 amount);\n    event Withdrawal(address receiver, uint256 amount);\n    event Transfer(address sender, address receiver, uint256 amount);\n\n    function deposit() public payable {\n        emit Deposit(msg.sender, msg.value);\n        balances[msg.sender] += msg.value;\n    }\n\n    function withdraw(uint256 amount) public {\n        require(balances[msg.sender] >= amount, \"Insufficient funds\");\n        emit Withdrawal(msg.sender, amount);\n        balances[msg.sender] -= amount;\n    }\n\n    function transfer(address receiver, uint256 amount) public {\n        require(balances[msg.sender] >= amount, \"Insufficient funds\");\n        emit Transfer(msg.sender, receiver, amount);\n        balances[msg.sender] -= amount;\n        balances[receiver] += amount;\n    }\n\n    // In a Batch\n\n    function transfer(address[] memory receivers, uint256 amount) public {\n        require(\n            balances[msg.sender] >= receivers.length * amount,\n            \"Insufficient funds\"\n        );\n        for (uint256 i = 0; i < receivers.length; i++) {\n            emit Transfer(msg.sender, receivers[i], amount);\n            balances[msg.sender] -= amount;\n            balances[receivers[i]] += amount;\n        }\n    }\n}\n",
  "sourcePath": "/home/user/crypto-wallet-pay/contracts/ATM.sol",
  "compiler": {
    "name": "solc",
    "version": "0.8.9+commit.e5eed63a.Emscripten.clang"
  },
  "schemaVersion": "3.4.3",
  "updatedAt": "2021-11-11T08:07:00.620Z",
  "devdoc": {
    "kind": "dev",
    "methods": {},
    "version": 1
  },
  "userdoc": {
    "kind": "user",
    "methods": {},
    "version": 1
  }
}