{
  "contractName": "ServicePay",
  "abi": [
    {
      "inputs": [],
      "stateMutability": "nonpayable",
      "type": "constructor"
    },
    {
      "inputs": [
        {
          "internalType": "uint256",
          "name": "_amount",
          "type": "uint256"
        }
      ],
      "name": "addAmount",
      "outputs": [],
      "stateMutability": "nonpayable",
      "type": "function"
    },
    {
      "inputs": [],
      "name": "payForService",
      "outputs": [],
      "stateMutability": "nonpayable",
      "type": "function"
    },
    {
      "inputs": [
        {
          "internalType": "address",
          "name": "_balance",
          "type": "address"
        }
      ],
      "name": "receiveBalance",
      "outputs": [],
      "stateMutability": "view",
      "type": "function"
    }
  ],
  "bytecode": "0x608060405234801561001057600080fd5b5061030d806100206000396000f3fe608060405234801561001057600080fd5b50600436106100415760003560e01c80630912f232146100465780635e9f33b914610062578063a22c6f411461007e575b600080fd5b610060600480360381019061005b91906101a2565b610088565b005b61007c6004803603810190610077919061022d565b610092565b005b610086610165565b005b8060008190555050565b3373ffffffffffffffffffffffffffffffffffffffff16600160009054906101000a900473ffffffffffffffffffffffffffffffffffffffff1673ffffffffffffffffffffffffffffffffffffffff1614610122576040517f08c379a0000000000000000000000000000000000000000000000000000000008152600401610119906102b7565b60405180910390fd5b600260008273ffffffffffffffffffffffffffffffffffffffff1673ffffffffffffffffffffffffffffffffffffffff1681526020019081526020016000205050565b565b600080fd5b6000819050919050565b61017f8161016c565b811461018a57600080fd5b50565b60008135905061019c81610176565b92915050565b6000602082840312156101b8576101b7610167565b5b60006101c68482850161018d565b91505092915050565b600073ffffffffffffffffffffffffffffffffffffffff82169050919050565b60006101fa826101cf565b9050919050565b61020a816101ef565b811461021557600080fd5b50565b60008135905061022781610201565b92915050565b60006020828403121561024357610242610167565b5b600061025184828501610218565b91505092915050565b600082825260208201905092915050565b7f6f6e6c792073656e6465722063616e20726563656976652062616c616e636500600082015250565b60006102a1601f8361025a565b91506102ac8261026b565b602082019050919050565b600060208201905081810360008301526102d081610294565b905091905056fea26469706673582212206317828d468fe3e220f0f6056341e6e98cf3a5c4c394c147b9ae389d0e767cad64736f6c63430008090033",
  "immutableReferences": {},
  "source": "// SPDX-License-Identifier:MIT\n\npragma solidity >=0.4.22 <0.9.0;\n\ncontract ServicePay{\n\n    uint amount;\n    address owner;\n    mapping(address => uint) balance;\n\n    constructor(){\n\n    }\n\n    function addAmount(uint _amount) public{\n        amount = _amount;\n    }\n\n    function payForService()public{\n\n    }\n\n    function receiveBalance(address _balance) public onlySender view {\n        balance[_balance];\n    }\n\n    modifier onlySender{\n        require(owner == msg.sender, 'only sender can receive balance');\n        _;\n    }\n\n}\n",
  "sourcePath": "/home/user/crypto-wallet-pay/contracts/ServicePay.sol",
  "compiler": {
    "name": "solc",
    "version": "0.8.9+commit.e5eed63a.Emscripten.clang"
  },
  "schemaVersion": "3.4.3",
  "updatedAt": "2021-11-11T08:07:00.661Z",
  "devdoc": {
    "kind": "dev",
    "methods": {},
    "version": 1
  },
  "userdoc": {
    "kind": "user",
    "methods": {},
    "version": 1
  }
}